:020000040800F2
:100000007806002081010008A3090008A109000862
:1000100000000000000000000000000000000000E0
:10002000000000000000000000000000BD130008F8
:100030000000000000000000A5090008BF13000830
:100040009301000893010008930100089301000840
:100050009301000893010008930100089301000830
:100060009301000893010008930100089301000820
:100070009301000893010008930100089301000810
:100080009301000893010008930100089301000800
:1000900093010008930100089301000893010008F0
:1000A00093010008930100089301000893010008E0
:1000B00093010008C9130008930100089301000888
:1000C00000F002F800F04CF812A030C808382418EC
:1000D0002D18AC4201D100F043F80FCCA246AB463C
:1000E0000CA730CF2D1B083F3F197C427F1E544484
:1000F0002D090426F441641EAC4201D300F030F80F
:100100000126334200D0FB1A3343984754465D46DC
:10011000DFE700002C2000004C200000103A02D342
:1001200078C878C1FAD8520701D330C830C101D598
:1001300004680C6070470000704700000023002432
:1001400000250026103A01D378C1FBD8520700D30E
:1001500030C100D50B6070471FB51FBD10B510BD75
:1001600000F04DF81146FFF7F7FF01F039F900F004
:1001700065F803B4FFF7F2FF03BC00F06BF8000072
:100180000748804707480047FEE7FEE7FEE7FEE72F
:10019000FEE7FEE704480549054A064B70470000A4
:1001A000C7130008C100000878000020780600206E
:1001B000780200207802002001E004C0091F042911
:1001C000FBD28B0701D50280801CC90700D00270CA
:1001D000704700290BD0C30702D00270401C491E93
:1001E000022904D3830702D50280801C891EE3E71D
:1001F0000022EEE70022DFE7704770477047754640
:1002000000F024F8AE46050069465346C008C00019
:10021000854618B020B5FFF7BDFF60BCB646002686
:100220000027C0C5C0C5C0C5C0C5C0C5C0C5C0C504
:10023000C0C5403D490849008D46704710B5044689
:10024000C046C0462046FFF794FF10BD00487047E7
:100250001000002001491820ABBEFEE72600020076
:1002600070470000054800687047C0461A4800788B
:1002700002490A68101808607047C04674000020E0
:1002800080B58548016810220A430260032000F00F
:1002900005F800F023F8002080BDC04670B5044684
:1002A0007D20C0000C4E317801F001FE01468448EB
:1002B000006801F0FCFD00F059FB0125032C08D873
:1002C000002806D10025E84321462A4600F01CF804
:1002D0007460284670BDC0460000002082B0094806
:1002E00001680122114301600168114001910199E7
:1002F000110742680A434260406808400090009835
:1003000002B0704718100240002805D403220346AB
:1003100093430A4A9A1803E00C220240064BD21873
:100320008007C00E8901C9B28140FF238340106855
:10033000984308431060704714ED00E000E400E0CB
:10034000F0B581B0002846D00446534A1368012016
:1003500003408B4208D213680126B3430B4313605A
:10036000126832408A4237D1009121688A074B4B8C
:1003700010D54A0706D5072212021B681343474AC5
:100380001360464B1A68F0239A43A3681343434A09
:100390001360424BC90722D13F490868012630400B
:1003A000009A904205D90868B04308600868C00701
:1003B00012D12078400706D5072000021968814332
:1003C000E068084318601A681007810F3548022951
:1003D00012D2044650E00126304601B0F0BD6168FB
:1003E00003290DD01A1F02290FD0012912D112683A
:1003F00092030646F0D511E0032926D12A4C3BE0B2
:100400001A6B92030646E7D508E012689201064689
:10041000E2D503E0126892070646DDD51868032688
:10042000B04308431860FFF71DFF07461C4D1B4BE8
:1004300018680C210140606880008142ACD0FFF751
:1004400011FFC01BA842F2D9C6E70321CB03134911
:10045000896A0F240C401549095D94021A40240F43
:10046000134D2C5D9A4202D033049A4200E00E48AC
:1004700001F01DFD4443094B18680006000F0D49AB
:10048000085CC4400E4804600320FFF707FF002605
:10049000304601B0F0BDC0460020024004100240CA
:1004A0008813000000127A00006CDC02C4200008EF
:1004B000B4200008A4200008014800687047C04626
:1004C00008000020F0B587B004460120002C00D1C0
:1004D00045E204902078C007F94E05940CD071686D
:1004E0000C200140042900D090E03068800303D53F
:1004F0006068002800D120E12078800721D570684D
:100500000007800F0ED070680C210140082900D030
:100510009DE00320C003716801400120C0038142B7
:1005200000D094E030688007059C03D5E06801287E
:1005300000D002E13068F82188432169C9000143F5
:100540003160059C2078000724D42078400737D4F8
:100550002078C00600D4D3E005984069411D00D141
:10056000C2E0012800D030E1706B042101437163C7
:10057000706B012101437163FFF774FE0546706BD8
:10058000800700D5B4E0FFF76DFE411B0320022970
:10059000F5D9E4E1706AE169002900D181E0012127
:1005A00008437062FFF75EFE0546706A8007CCD490
:1005B000FFF758FE401B0228F7D9032007B0F0BD13
:1005C000012003900107F0690840029006D1F0690C
:1005D0000843F061F0690840069006980191E14FE8
:1005E0003868C0054AD4039804023868204338604C
:1005F000FFF738FE0546386820423FD1FFF732FE4C
:10060000401B6428F7D9032007B0F0BD7168014092
:10061000082908D10320C0037168014001200004AB
:10062000814200D161E7616801204704002900D1BF
:1006300017E1052900D12BE1012900D12CE10104AA
:1006400032688A43326081043068884327E1306829
:10065000059CE168002936D0012108433060FFF78E
:1006600001FE05463068800700D563E7FFF7FAFD15
:10067000401B0228F6D9032007B0F0BD059880681A
:10068000002800D1B6E0052800D1C9E0012800D13A
:10069000CAE0306A039988433062306A0421884393
:1006A000C5E0012188437062FFF7DCFD0546706AF2
:1006B000800700D449E7FFF7D5FD401B0228F6D993
:1006C000032007B0F0BD012188433060FFF7CAFD69
:1006D00005463068800700D433E7FFF7C3FD411BB0
:1006E00003200229F5D93AE1706B04218843706335
:1006F000706BF821884305998969C90001437163CA
:100700000598007880060BD571680C2001400C29F3
:1007100039D1706B800303D50598006A01280CD18C
:100720000598446A002C00D1E1E070680C2101407A
:10073000082905D1012C00D0C4E0049807B0F0BD11
:100740000120020631680492914331604706FFF7A9
:1007500089FD0546022C0BD1049C3068384200D13B
:10076000DEE0FFF77FFD411B03200229F5D9F6E00B
:100770003068384200D1BAE0FFF774FD411B032016
:100780000229F5D9EBE071680140082905D1032061
:10079000C003716801408142BBD0706B0599096A42
:1007A000002900D1A9E001210A04104370634C0420
:1007B000FFF758FD0546706B2042B1D1FFF752FD9F
:1007C000411B03200229F6D9C9E0706B04210143C3
:1007D0007163706B012188437063FFF743FD054629
:1007E000706B80078CD5FFF73DFD411B032002296C
:1007F000F6D9B4E0306A039988433062306A042144
:1008000088433062584CFFF72DFD0546306A80075B
:100810001DD5FFF727FD411B0320A142F6D99EE01D
:10082000306A042101433162306A0399084330621F
:100830004D4CFFF717FD0546306A800707D4FFF7D8
:1008400011FD401BA042F7D9032007B0F0BD02986C
:100850000028059C00D07BE6F06901998843F0618F
:1008600076E6010432688A4332608004316881434D
:100870003160FFF7F7FC0546059C3068384200D12F
:100880003AE6FFF7EFFC411B03206429F5D966E047
:10089000810432680A4332600104306808433060E2
:1008A000FFF7E0FC05463068384200D024E6FFF749
:1008B000D9FC401B6428F6D9032007B0F0BDC04620
:1008C000001002400320C20370680240F16A059CD8
:1008D000A36A9A42049D0DD10F221140236B9942C5
:1008E00008D191040840E16A8842284637D10020A7
:1008F00007B0F0BD284607B0F0BD01210A049043BF
:1009000070634C04FFF7AEFC0546706B204200D1CB
:1009100006E7FFF7A7FC411B03200229F5D91EE0DB
:10092000F06A0F218843059A116B0143F1627B2025
:10093000C00371688143D06A0843916A01437160C2
:10094000306820433060FFF78DFC04463068384241
:10095000CDD1FFF787FC011B03200229F6D907B090
:10096000F0BDC0460070004088130000401E010E1C
:1009700001D0012070470749074A506007480368C3
:100980000B4003218907591801600020906007215E
:1009900011607047FFFFFF0010E000E020ED00E075
:1009A000FEE7FEE77047000010B562380D4A1028D8
:1009B00000D97CE34000C0467844808840008744EA
:1009C00013007603760376037603940076037603AA
:1009D00076037603760376037603230176037603A4
:1009E000BE01C0461C4800401068000608D41068CC
:1009F000000605D41068000602D410680006F3D57E
:100A0000422090811068000608D41068000605D4C2
:100A10001068000602D410680006F3D56C2090819F
:100A20001068000608D41068000605D41068000697
:100A300002D410680006F3D5752090811068000676
:100A400008D41068000605D41068000602D41068A7
:100A50000006F3D5652090811068000608D4106860
:100A6000000605D41068000602D410680006F3D50D
:100A7000202090811068000608D41068000605D474
:100A80001068000602D410680006F3D54C2090814F
:100A90001068000608D41068000605D41068000627
:100AA00002D410680006F3D5452090811068000636
:100AB00008D41068000605D41068000602D4106837
:100AC0000006F3D54420908110688023000600D5ED
:100AD000A4E11068000600D5A0E11068000600D56A
:100AE0009CE110680006EFD598E11068000608D474
:100AF0001068000605D41068000602D410680006CD
:100B0000F3D5472090811068000608D410680006CD
:100B100005D41068000602D410680006F3D57220D0
:100B200090811068000608D41068000605D410688B
:100B3000000602D410680006F3D565209081136882
:100B40001B0608D413681B0605D413681B0602D4C1
:100B500013681B06F3D590811068000608D410684E
:100B6000000605D41068000602D410680006F3D50C
:100B70006E2090811068000608D41068000605D425
:100B80001068000602D410680006F3D5202090817A
:100B90001068000608D41068000605D41068000626
:100BA00002D410680006F3D54C209081106800062E
:100BB00008D41068000605D41068000602D4106836
:100BC0000006F3D5452090811068000608D410680F
:100BD000000605D41068000602D410680006F3D59C
:100BE00044209081012043021068000600D515E1E1
:100BF0001068000600D511E11068000600D50DE16F
:100C000010680006EED509E11068000608D41068E7
:100C1000000605D41068000602D410680006F3D55B
:100C20004F2090811068000608D41068000605D493
:100C30001068000602D410680006F3D57220908177
:100C40001068000608D41068000605D41068000675
:100C500002D410680006F3D5612090811068000668
:100C600008D41068000605D41068000602D4106885
:100C70000006F3D56E2090811068000608D4106835
:100C8000000605D41068000602D410680006F3D5EB
:100C9000672090811068000608D41068000605D40B
:100CA0001068000602D410680006F3D56520908114
:100CB0001068000608D41068000605D41068000605
:100CC00002D410680006F3D5202090811068000639
:100CD00008D41068000605D41068000602D4106815
:100CE0000006F3D54C2090811068000608D41068E7
:100CF000000605D41068000602D410680006F3D57B
:100D0000452090811068000608D41068000605D4BC
:100D10001068000602D410680006F3D544209081C4
:100D2000012003021068000678D41068000675D40C
:100D30001068000672D410680006F1D56EE01068E5
:100D4000000608D41068000605D41068000602D416
:100D500010680006F3D5522090811068000608D470
:100D60001068000605D41068000602D4106800065A
:100D7000F3D5652090811068000608D4106800063D
:100D800005D41068000602D410680006F3D564206C
:100D900090811068000608D41068000605D4106819
:100DA000000602D410680006F3D520209081106858
:100DB000000608D41068000605D41068000602D4A6
:100DC00010680006F3D54C2090811068000608D406
:100DD0001068000605D41068000602D410680006EA
:100DE000F3D5452090811068000608D410680006ED
:100DF00005D41068000602D410680006F3D544201C
:100E0000908110684023000608D41068000605D4BD
:100E10001068000602D410680006F2D520209081E8
:100E2000302900D14BE2312900D191E2322972D12F
:100E30001168090608D41168090605D41168090665
:100E400002D411680906F3D574219181116809064D
:100E500008D41168090605D41168090602D411687E
:100E60000906F3D56F2191811168090608D411682C
:100E7000090605D41168090602D411680906F3D5DC
:100E8000672191811468240608D41468240605D4C7
:100E90001468240602D414682406F3D591811168DD
:100EA000090608D41168090605D41168090602D498
:100EB00011680906F3D56C2191811168090608D4DF
:100EC0001168090605D41168090602D411680906DB
:100ED000F3D5652191811168090608D411680906C6
:100EE00005D41168090602D411680906F3D52E212C
:100EF00091811168090608D41168090605D41168A2
:100F0000090602D411680906F3D59081E648016804
:100F10005940016010BD1168090608D4116809061E
:100F200005D41168090602D411680906F3D55721C2
:100F300091811168090608D41168090605D4116861
:100F4000090602D411680906F3D57221918113684C
:100F50001B0608D413681B0605D413681B0602D4AD
:100F600013681B06F3D56F23938113681B0608D4FF
:100F700013681B0605D413681B0602D413681B06EE
:100F8000F3D56E2393811468240608D414682406CC
:100F900005D41468240602D414682406F3D5672403
:100FA00094811468240608D41468240605D41468AF
:100FB000240602D414682406F3D59081146824060C
:100FC00008D41468240605D41468240602D41468CE
:100FD0002406F3D5938113681B0608D413681B06F7
:100FE00005D413681B0602D413681B06F3D57523BA
:100FF000938113681B0608D413681B0605D4136875
:101000001B0602D413681B06F3D56D239381136866
:101010001B0608D413681B0605D413681B0602D4EC
:1010200013681B06F3D56223938113681B0608D44B
:1010300013681B0605D413681B0602D413681B062D
:10104000F3D56523938113681B0608D413681B0628
:1010500005D413681B0602D413681B06F3D59181CF
:101060001168090608D41168090605D41168090633
:1010700002D411680906F3D52E2191811168090661
:1010800000D50EE11168090600D50AE111680906CC
:1010900000D506E111680906F0D502E110680006E6
:1010A00008D41068000605D41068000602D4106841
:1010B0000006F3D5572090811068000608D4106808
:1010C000000605D41068000602D410680006F3D5A7
:1010D000722393811068000608D41068000605D4B6
:1010E0001068000602D410680006F3D56F219181C4
:1010F0001068000608D41068000605D410680006C1
:1011000002D410680006F3D56E20908110680006A6
:1011100008D41068000605D41068000602D41068D0
:101120000006F3D5672090811068000608D4106887
:10113000000605D41068000602D410680006F3D536
:10114000202090811468240608D41468240605D44D
:101150001468240602D414682406F3D56324948109
:101160001468240608D41468240605D414682406D8
:1011700002D414682406F3D591811468240608D497
:101180001468240605D41468240602D414682406BE
:10119000F3D56C2494811468240608D414682406BA
:1011A00005D41468240602D414682406F3D591816A
:1011B0001468240608D41468240605D41468240688
:1011C00002D414682406F3D5938113681B0608D44F
:1011D00013681B0605D413681B0602D413681B068C
:1011E000F3D5908113681B0608D413681B0605D439
:1011F00013681B0602D413681B06F3D5682393817A
:1012000013681B0608D413681B0605D413681B0655
:1012100002D413681B06F3D591811168090608D41E
:101220001168090605D41168090602D41168090677
:10123000F3D56D2191811168090608D4116809065A
:1012400005D41168090602D411680906F3D569218D
:1012500091811168090608D41168090605D411683E
:10126000090602D411680906F3D565219181116838
:10127000090608D41168090605D41168090602D4C4
:1012800011680906F3D52E2191811168090608D449
:101290001168090605D41168090602D41168090607
:1012A000F3D5908110BDC0461408004811680906A6
:1012B00008D41168090605D41168090602D411681A
:1012C0000906F3D56F2191811168090608D41168C8
:1012D000090605D41168090602D411680906F3D578
:1012E000662191811468240608D41468240605D464
:1012F0001468240602D414682406F3D59181116879
:10130000090608D41168090605D41168090602D433
:1013100011680906F3D52E2191811168090608D4B8
:101320001168090605D41168090602D41168090676
:10133000F3D59081204801689943016010BD116880
:10134000090608D41168090605D41168090602D4F3
:1013500011680906F3D56F2191811168090608D437
:101360001168090605D41168090602D41168090636
:10137000F3D56E2191811168090608D41168090618
:1013800005D41168090602D411680906F3D52E2187
:1013900091811168090608D41168090605D41168FD
:1013A000090602D411680906F3D590810248016844
:1013B0001943016010BDC04614080048704780B54D
:1013C000FEF754FF80BD704778480168890605D54F
:1013D00000897248FF214170012101707047C046A9
:1013E00000B59FB0FEF74CFF12AD281D3021FEF76F
:1013F00001FF00241B941020169001261596022050
:1014000012902846FFF75EF8002803D0EFF3108013
:1014100072B6FEE7119410940F9407250E950EA84E
:101420002146FEF78DFF002803D0EFF3108072B63F
:10143000FEE75A4901940C7026204870F104584A7E
:1014400010680843106072035648036893430360B2
:10145000F3030C9302689A43026072040368934397
:10146000036002688A43026034030168214301601B
:10147000B7030168394301603204016811430D95D7
:1014800015460160B30401681943016041684022B8
:101490000B9291434160416880220A9291434160DE
:1014A0004168414A11404160710242688A4342608A
:1014B0008268A24382608268BA4382608268AA43DB
:1014C000826082689A43826003221403C768A7433C
:1014D000C7609403C768A743C7601404C768A743DD
:1014E000C7609204C4689443C46042690B9C224361
:1014F000426142690A9C22434261320244691443B8
:101500004461264C42690A434261254FBA681A4336
:10151000BA6002680A4302600168234A1140016010
:10152000F10202680A430260B10202688A43026063
:101530000D9B5904026A8A430262016A29430162CF
:101540005905026A8A4302623105026A0A4302624D
:10155000FEF7B2FFE121490200F0A9FC134F394622
:101560001039086038461C3801680C220A430260B2
:10157000016831430160016820220D92114301602E
:1015800070070B490860FF2000020A490A6882437D
:101590000C9810180860084D16E0C0467000002036
:1015A0001410024000080048FFFEFFFF1C480040E6
:1015B00000E100E01CE400E0152100080298B88179
:1015C00061780398FFF7F0F938680006FCD50A2126
:1015D000B9813868000608D43868000605D4386830
:1015E000000602D438680006F3D55720B881386861
:1015F000000608D43868000605D43868000602D40E
:1016000038680006F3D568200890B881386800066D
:1016100008D43868000605D43868000602D4386853
:101620000006F3D561200C90B8813868000608D414
:101630003868000605D43868000602D43868000609
:10164000F3D574200990B8813868000608D438684A
:10165000000605D43868000602D438680006F3D5C1
:101660000D98B8813868000608D43868000605D49B
:101670003868000602D438680006F3D57720B881B0
:101680003868000608D43868000605D438680006B3
:1016900002D438680006F3D56F23BB813868000692
:1016A00008D43868000605D43868000602D43868C3
:1016B0000006F3D57520B8813A68120608D43A6856
:1016C000120605D43A68120602D43A681206F3D517
:1016D0006C22BA813A68120608D43A68120605D418
:1016E0003A68120602D43A681206F3D564220792C9
:1016F000BA813A68120608D43A68120605D43A68E4
:10170000120602D43A681206F3D50D9ABA813A68E5
:10171000120608D43A68120605D43A68120602D4B2
:101720003A681206F3D57922BA813A68120608D4CB
:101730003A68120605D43A68120602D43A681206CC
:10174000F3D5BB813A68120608D43A68120605D46C
:101750003A68120602D43A681206F3D5B88138689E
:10176000000608D43868000605D43868000602D49C
:1017700038680006F3D50D98B8813868000608D49B
:101780003868000605D43868000602D438680006B8
:10179000F3D50898B8813868000608D43868000680
:1017A00005D43868000602D438680006F3D50C98D2
:1017B000B8813868000608D43868000605D438684F
:1017C000000602D438680006F3D57620B881386860
:1017D000000608D43868000605D43868000602D42C
:1017E00038680006F3D565200B90B881386800068C
:1017F00008D43868000605D43868000602D4386872
:101800000006F3D50D98B8813868000608D438680A
:10181000000605D43868000602D438680006F3D5FF
:101820006D20B8813868000608D43868000605D4F1
:101830003868000602D438680006F3D50B98B881E2
:101840003868000608D43868000605D438680006F1
:1018500002D438680006F3D50D98B88138680006C0
:1018600008D43868000605D43868000602D4386801
:101870000006F3D50798B8813868000608D43868A0
:10188000000605D43868000602D438680006F3D58F
:10189000BB813868000608D43868000605D438686B
:1018A000000602D438680006F3D53F20B8813868B6
:1018B000800608D43868800605D43868800602D4CB
:1018C00038688006F3D5388960703868000608D417
:1018D0003868000605D43868000602D43868000667
:1018E000F3D5B9813868000608D43868000605D4F5
:1018F0003868000602D438680006F3D54620B8815F
:101900003868000608D43868000605D43868000630
:1019100002D438680006F3D569200690B88138688B
:10192000000608D43868000605D43868000602D4DA
:1019300038680006F3D572200A90B8813A6812061A
:1019400008D43A68120605D43A68120602D43A68F6
:101950001206F3D573200590B8813A68120608D4B0
:101960003A68120605D43A68120602D43A6812069A
:10197000F3D50998B8813A68120608D43A68120675
:1019800005D43A68120602D43A681206F3D50493D5
:101990000D98B8813A68120608D43A68120605D440
:1019A0003A68120602D43A681206F3D56323BB8163
:1019B0003A68120608D43A68120605D43A68120644
:1019C00002D43A681206F3D50898B8813A6812062C
:1019D00008D43A68120605D43A68120602D43A6866
:1019E0001206F3D50C98B8813A68120608D43A6802
:1019F000120605D43A68120602D43A681206F3D5E4
:101A00000A98B8813A68120608D43A68120605D4D2
:101A10003A68120602D43A681206F3D50C98B881D7
:101A20003A68120608D43A68120605D43A681206D3
:101A300002D43A681206F3D5BB813A68120608D47C
:101A40003A68120605D43A68120602D43A681206B9
:101A5000F3D50998B8813A68120608D43A68120694
:101A600005D43A68120602D43A681206F3D50B98E8
:101A7000B8813A68120608D43A68120605D43A6862
:101A8000120602D43A681206F3D50A98B8813A6869
:101A9000120608D43A68120605D43A68120602D42F
:101AA0003A681206F3D50D98B8813A68120608D440
:101AB0003A68120605D43A68120602D43A68120649
:101AC000F3D50698B8813A68120608D43A68120627
:101AD00005D43A68120602D43A681206F3D505987E
:101AE000B8813A68120608D43A68120605D43A68F2
:101AF000120602D43A681206F3D50D98B881204632
:101B000062783C68240608D43C68240605D43C6806
:101B1000240602D43C682406F3D5BA8104464278F0
:101B2000722A09D06278672A06D06278622A03D0C6
:101B300062786F2A00D05BE1607803903A68920681
:101B400008D43A68920605D43A68920602D43A68F4
:101B50009206F3D53A8962703A68120608D43A6858
:101B6000120605D43A68120602D43A681206F3D572
:101B70000A200290B8813A68120608D43A68120620
:101B800005D43A68120602D43A681206F3D55322F5
:101B9000BA813A68120608D43A68120605D43A683F
:101BA000120602D43A681206F3D50B98B8813A6847
:101BB000120608D43A68120605D43A68120602D40E
:101BC0003A681206F3D5BB813A68120608D43A681F
:101BD000120605D43A68120602D43A681206F3D502
:101BE0000498B8813A68120608D43A68120605D4F7
:101BF0003A68120602D43A681206F3D56E22BA8108
:101C00003A68120608D43A68120605D43A681206F1
:101C100002D43A681206F3D50798B8813A681206DA
:101C200008D43A68120605D43A68120602D43A6813
:101C30001206F3D50D98B8813A68120608D43A68AE
:101C4000120605D43A68120602D43A681206F3D591
:101C5000BB813A68120608D43A68120605D43A687D
:101C6000120602D43A681206F3D50898B8813A6889
:101C7000120608D43A68120605D43A68120602D44D
:101C80003A681206F3D50C98B8813A68120608D45F
:101C90003A68120605D43A68120602D43A68120667
:101CA000F3D50A98B8813A68120608D43A68120641
:101CB00005D43A68120602D43A681206F3D50C9895
:101CC000B8813A68120608D43A68120605D43A6810
:101CD000120602D43A681206F3D5BB813A6812069E
:101CE00008D43A68120605D43A68120602D43A6853
:101CF0001206F3D50998B8813A68120608D43A68F2
:101D0000120605D43A68120602D43A681206F3D5D0
:101D10000B98B8813A68120608D43A68120605D4BE
:101D20003A68120602D43A681206F3D50A98B881C6
:101D30003868000608D43868000605D438680006FC
:101D400002D438680006F3D50D98B88138680006CB
:101D500008D43868000605D43868000602D438680C
:101D60000006F3D50698B8813868000608D43868AC
:101D7000000605D43868000602D438680006F3D59A
:101D80000598B8813868000608D43868000605D47C
:101D90003868000602D438680006F3D50D98B8817B
:101DA00060783A68120608D43A68120605D43A6890
:101DB000120602D43A681206F3D5B881607830284A
:101DC00016D36078322813D83868000601D5FFF79B
:101DD000F5FB3868000601D5FFF7F0FB3868000610
:101DE00001D5FFF7EBFB38680006EDD5FFF7E6FB02
:101DF000019806E0B981801D295C2A2801D1FFF7EE
:101E0000E3FB3A68120608D43A68120605D43A6829
:101E1000120602D43A681206F3D5B981014631435D
:101E2000695C3A68120608D43A68120605D43A6822
:101E3000120602D43A681206F3D5B98141198A789C
:101E40003B681B0608D43B681B0605D43B681B0691
:101E500002D43B681B06F3D5BA81CA783B681B06DF
:101E600008D43B681B0605D43B681B0602D43B68BC
:101E70001B06F3D5BA810A793B681B0608D43B6878
:101E80001B0605D43B681B0602D43B681B06F3D532
:101E9000BA8149793A681206ACD43A681206A9D4D4
:101EA0003A681206A6D43A681206F3D5A2E74308A8
:101EB0008B421AD3002203098B4279D3030A8B4247
:101EC0005ED3030B8B4242D3030C8B4227D3090210
:101ED000FF2212BA030C8B4202D31212090203D062
:101EE000030B8B4233D31AE0D3E0411A8041401CEC
:101EF000704703460B4371D443088B42F5D300224D
:101F000003098B4254D3030A8B4239D3030B8B4210
:101F10001DD3030C8B4202D394466EE0090AC30B17
:101F20008B4201D3CB03C01A5241830B8B4201D3A6
:101F30008B03C01A5241430B8B4201D34B03C01A8F
:101F40005241030B8B4201D30B03C01A5241C30A07
:101F50008B4201D3CB02C01A5241830A8B4201D378
:101F60008B02C01A5241430A8B4201D34B02C01A62
:101F70005241030A8B4201D30B02C01A5241CDD207
:101F8000C3098B4201D3CB01C01A524183098B4252
:101F900001D38B01C01A524143098B4201D34B013B
:101FA000C01A524103098B4201D30B01C01A52419E
:101FB000C3088B4201D3CB00C01A524183088B4225
:101FC00001D38B00C01A524143088B4201D34B000E
:101FD000C01A5241411A524110007047CA0F00D036
:101FE0004942031000D34042534000229C4603095B
:101FF0008B422DD3030A8B4212D38901FC2212BAE1
:10200000030A8B420CD3890192118B4208D38901B8
:1020100092118B4204D3890137D0921100E08909D3
:10202000C3098B4201D3CB01C01A524183098B42B1
:1020300001D38B01C01A524143098B4201D34B019A
:10204000C01A524103098B4201D30B01C01A5241FD
:10205000C3088B4201D3CB00C01A524183088B4284
:1020600001D38B00C01A5241D9D243088B4201D30D
:102070004B00C01A5241411A00D20146524110464B
:1020800063465B1000D34042704763465B1000D349
:10209000404201B50021004201D0C9430846C04674
:1020A000C04602BD00000000000000000102030461
:1020B0000607080902030405060708090A0B0C0DA8
:1020C0000E0F10100102030405060708090A0B0C85
:1020D0000D0E0F10596F75277265206F6E6C792089
:1020E000616C6C6F77656420746F20747970652003
:1020F0006F6E65206F6620746865203420636F6C96
:102100006F72732E2054727920616761696E206E40
:102110006572642E000A5468617427732069732005
:102120006E6F7420612076616C696420636F6D6DE1
:10213000616E642C2054727920616761696E2E0093
:102140006021000800000020100000001C010008B1
:102150007021000810000020680600003C01000803
:10216000010000000400000000127A0000000000DE
:04000005080000C12E
:00000001FF
